{
  "contractName": "HighRollerApp",
  "abi": [
    {
      "constant": true,
      "inputs": [
        {
          "name": "encodedState",
          "type": "bytes"
        }
      ],
      "name": "isStateTerminal",
      "outputs": [
        {
          "name": "",
          "type": "bool"
        }
      ],
      "payable": false,
      "stateMutability": "pure",
      "type": "function",
      "signature": "0x59e537c1"
    },
    {
      "constant": true,
      "inputs": [
        {
          "name": "encodedState",
          "type": "bytes"
        },
        {
          "name": "signingKeys",
          "type": "address[]"
        }
      ],
      "name": "getTurnTaker",
      "outputs": [
        {
          "name": "",
          "type": "address"
        }
      ],
      "payable": false,
      "stateMutability": "pure",
      "type": "function",
      "signature": "0xce963afd"
    },
    {
      "constant": true,
      "inputs": [
        {
          "name": "encodedState",
          "type": "bytes"
        },
        {
          "name": "encodedAction",
          "type": "bytes"
        }
      ],
      "name": "applyAction",
      "outputs": [
        {
          "name": "",
          "type": "bytes"
        }
      ],
      "payable": false,
      "stateMutability": "pure",
      "type": "function",
      "signature": "0x51c2e541"
    },
    {
      "constant": true,
      "inputs": [
        {
          "name": "encodedState",
          "type": "bytes"
        },
        {
          "components": [
            {
              "name": "assetType",
              "type": "uint8"
            },
            {
              "name": "limit",
              "type": "uint256"
            },
            {
              "name": "token",
              "type": "address"
            }
          ],
          "name": "terms",
          "type": "tuple"
        }
      ],
      "name": "resolve",
      "outputs": [
        {
          "components": [
            {
              "name": "assetType",
              "type": "uint8"
            },
            {
              "name": "token",
              "type": "address"
            },
            {
              "name": "to",
              "type": "address[]"
            },
            {
              "name": "value",
              "type": "uint256[]"
            },
            {
              "name": "data",
              "type": "bytes[]"
            }
          ],
          "name": "",
          "type": "tuple"
        }
      ],
      "payable": false,
      "stateMutability": "pure",
      "type": "function",
      "signature": "0x4e8ecff4"
    }
  ],
  "bytecode": "0x608060405234801561001057600080fd5b50610a7b806100206000396000f3fe608060405234801561001057600080fd5b5060043610610069576000357c0100000000000000000000000000000000000000000000000000000000900480634e8ecff41461006e57806351c2e5411461009e57806359e537c1146100ce578063ce963afd146100fe575b600080fd5b6100886004803603610083919081019061053d565b61012e565b6040516100959190610848565b60405180910390f35b6100b860048036036100b391908101906104d1565b61021c565b6040516100c59190610826565b60405180910390f35b6100e860048036036100e39190810190610424565b61023b565b6040516100f5919061080b565b60405180910390f35b61011860048036036101139190810190610465565b610245565b60405161012591906107f0565b60405180910390f35b610136610264565b60a060405190810160405280836000015160ff168152602001836040015173ffffffffffffffffffffffffffffffffffffffff168152602001600260405190808252806020026020018201604052801561019f5781602001602082028038833980820191505090505b50815260200160026040519080825280602002602001820160405280156101d55781602001602082028038833980820191505090505b508152602001600260405190808252806020026020018201604052801561021057816020015b60608152602001906001900390816101fb5790505b50815250905092915050565b6060604051602001604051602081830303815290604052905092915050565b6000809050919050565b60007372ba7d8e73fe8eb666ea66babc8116a41bfb10e2905092915050565b60a060405190810160405280600060ff168152602001600073ffffffffffffffffffffffffffffffffffffffff1681526020016060815260200160608152602001606081525090565b60006102b982356109c5565b905092915050565b600082601f83011215156102d457600080fd5b81356102e76102e282610897565b61086a565b9150818183526020840193506020810190508385602084028201111561030c57600080fd5b60005b8381101561033c578161032288826102ad565b84526020840193506020830192505060018101905061030f565b5050505092915050565b600082601f830112151561035957600080fd5b813561036c610367826108bf565b61086a565b9150808252602083016020830185838301111561038857600080fd5b6103938382846109ee565b50505092915050565b6000606082840312156103ae57600080fd5b6103b8606061086a565b905060006103c884828501610410565b60008301525060206103dc848285016103fc565b60208301525060406103f0848285016102ad565b60408301525092915050565b600061040882356109d7565b905092915050565b600061041c82356109e1565b905092915050565b60006020828403121561043657600080fd5b600082013567ffffffffffffffff81111561045057600080fd5b61045c84828501610346565b91505092915050565b6000806040838503121561047857600080fd5b600083013567ffffffffffffffff81111561049257600080fd5b61049e85828601610346565b925050602083013567ffffffffffffffff8111156104bb57600080fd5b6104c7858286016102c1565b9150509250929050565b600080604083850312156104e457600080fd5b600083013567ffffffffffffffff8111156104fe57600080fd5b61050a85828601610346565b925050602083013567ffffffffffffffff81111561052757600080fd5b61053385828601610346565b9150509250929050565b6000806080838503121561055057600080fd5b600083013567ffffffffffffffff81111561056a57600080fd5b61057685828601610346565b92505060206105878582860161039c565b9150509250929050565b61059a81610970565b82525050565b6105a981610970565b82525050565b60006105ba82610912565b8084526020840193506105cc836108eb565b60005b828110156105fe576105e2868351610591565b6105eb82610949565b91506020860195506001810190506105cf565b50849250505092915050565b60006106158261091d565b8084526020840193508360208202850161062e856108f8565b60005b84811015610667578383038852610649838351610718565b925061065482610956565b9150602088019750600181019050610631565b508196508694505050505092915050565b600061068382610928565b80845260208401935061069583610905565b60005b828110156106c7576106ab8683516107d2565b6106b482610963565b9150602086019550600181019050610698565b50849250505092915050565b6106dc81610982565b82525050565b60006106ed8261093e565b8084526107018160208601602086016109fd565b61070a81610a30565b602085010191505092915050565b600061072382610933565b8084526107378160208601602086016109fd565b61074081610a30565b602085010191505092915050565b600060a08301600083015161076660008601826107e1565b5060208301516107796020860182610591565b506040830151848203604086015261079182826105af565b915050606083015184820360608601526107ab8282610678565b915050608083015184820360808601526107c5828261060a565b9150508091505092915050565b6107db816109ae565b82525050565b6107ea816109b8565b82525050565b600060208201905061080560008301846105a0565b92915050565b600060208201905061082060008301846106d3565b92915050565b6000602082019050818103600083015261084081846106e2565b905092915050565b60006020820190508181036000830152610862818461074e565b905092915050565b6000604051905081810181811067ffffffffffffffff8211171561088d57600080fd5b8060405250919050565b600067ffffffffffffffff8211156108ae57600080fd5b602082029050602081019050919050565b600067ffffffffffffffff8211156108d657600080fd5b601f19601f8301169050602081019050919050565b6000602082019050919050565b6000602082019050919050565b6000602082019050919050565b600081519050919050565b600081519050919050565b600081519050919050565b600081519050919050565b600081519050919050565b6000602082019050919050565b6000602082019050919050565b6000602082019050919050565b600061097b8261098e565b9050919050565b60008115159050919050565b600073ffffffffffffffffffffffffffffffffffffffff82169050919050565b6000819050919050565b600060ff82169050919050565b60006109d08261098e565b9050919050565b6000819050919050565b600060ff82169050919050565b82818337600083830152505050565b60005b83811015610a1b578082015181840152602081019050610a00565b83811115610a2a576000848401525b50505050565b6000601f19601f830116905091905056fea265627a7a723058207f3bceabb09c2abed1a5e30c3499ff5ac5f674637f47040ee85b009f8a15f24c6c6578706572696d656e74616cf50037",
  "source": "pragma solidity 0.5.3;\npragma experimental \"ABIEncoderV2\";\n\nimport \"@counterfactual/contracts/contracts/libs/Transfer.sol\";\nimport \"@counterfactual/contracts/contracts/CounterfactualApp.sol\";\n\n\ncontract HighRollerApp is CounterfactualApp {\n  function isStateTerminal(bytes memory encodedState)\n    public\n    pure\n    returns (bool)\n  {\n    return false;\n  }\n\n  function getTurnTaker(bytes memory encodedState, address[] memory signingKeys)\n    public\n    pure\n    returns (address)\n  {\n    return 0x72bA7d8E73Fe8Eb666Ea66babC8116a41bFb10e2;\n  }\n\n  function applyAction(bytes memory encodedState, bytes memory encodedAction)\n    public\n    pure\n    returns (bytes memory)\n  {\n    return abi.encode();\n  }\n\n  function resolve(bytes memory encodedState, Transfer.Terms memory terms)\n    public\n    pure\n    returns (Transfer.Transaction memory)\n  {\n    return Transfer.Transaction(\n      terms.assetType,\n      terms.token,\n      new address[](2),\n      new uint256[](2),\n      new bytes[](2)\n    );\n  }\n\n}",
  "sourcePath": "/Users/ebryn/Dev/cf-gsg-practice/contracts/HighRollerApp.sol",
  "compiler": {
    "name": "solc",
    "version": "0.5.3+commit.10d17f24.Emscripten.clang"
  },
  "schemaVersion": "3.0.5",
  "updatedAt": "2019-04-01T11:27:06.619Z",
  "devdoc": {
    "methods": {}
  },
  "userdoc": {
    "methods": {}
  }
}