{
  "contractName": "Transfer",
  "abi": [
    {
      "constant": false,
      "inputs": [
        {
          "components": [
            {
              "name": "assetType",
              "type": "uint8"
            },
            {
              "name": "token",
              "type": "address"
            },
            {
              "name": "to",
              "type": "address[]"
            },
            {
              "name": "value",
              "type": "uint256[]"
            },
            {
              "name": "data",
              "type": "bytes[]"
            }
          ],
          "name": "txn",
          "type": "tuple"
        }
      ],
      "name": "execute",
      "outputs": [],
      "payable": false,
      "stateMutability": "nonpayable",
      "type": "function"
    },
    {
      "constant": true,
      "inputs": [
        {
          "components": [
            {
              "name": "assetType",
              "type": "uint8"
            },
            {
              "name": "token",
              "type": "address"
            },
            {
              "name": "to",
              "type": "address[]"
            },
            {
              "name": "value",
              "type": "uint256[]"
            },
            {
              "name": "data",
              "type": "bytes[]"
            }
          ],
          "name": "txn",
          "type": "tuple"
        },
        {
          "components": [
            {
              "name": "assetType",
              "type": "uint8"
            },
            {
              "name": "limit",
              "type": "uint256"
            },
            {
              "name": "token",
              "type": "address"
            }
          ],
          "name": "terms",
          "type": "tuple"
        }
      ],
      "name": "meetsTerms",
      "outputs": [
        {
          "name": "",
          "type": "bool"
        }
      ],
      "payable": false,
      "stateMutability": "pure",
      "type": "function"
    }
  ],
  "bytecode": "0x6109b3610030600b82828239805160001a6073146000811461002057610022565bfe5b5030600052607381538281f3fe730000000000000000000000000000000000000000301460806040526004361061005c576000357c0100000000000000000000000000000000000000000000000000000000900480629bc9b414610061578063d439d65e1461008a575b600080fd5b81801561006d57600080fd5b5061008860048036036100839190810190610675565b6100ba565b005b6100a4600480360361009f91908101906106b6565b61029d565b6040516100b191906107bd565b60405180910390f35b60008090505b8160400151518110156102995760008260400151828151811015156100e157fe5b906020019060200201519050600083606001518381518110151561010157fe5b9060200190602002015190506000600181111561011a57fe5b60ff16846000015160ff16141561017d5760008290508073ffffffffffffffffffffffffffffffffffffffff166108fc839081150290604051600060405180830381858888f19350505050158015610176573d6000803e3d6000fd5b505061028a565b60018081111561018957fe5b60ff16846000015160ff16141561028957836020015173ffffffffffffffffffffffffffffffffffffffff1663a9059cbb83836040518363ffffffff167c01000000000000000000000000000000000000000000000000000000000281526004016101f5929190610794565b602060405180830381600087803b15801561020f57600080fd5b505af1158015610223573d6000803e3d6000fd5b505050506040513d601f19601f82011682018060405250610247919081019061064c565b1515610288576040517f08c379a000000000000000000000000000000000000000000000000000000000815260040161027f906107d8565b60405180910390fd5b5b5b505080806001019150506100c0565b5050565b6000806000905060008090505b8460600151518110156102e4578460600151818151811015156102c957fe5b906020019060200201518201915080806001019150506102aa565b50826020015181111591505092915050565b600061030282356108ff565b905092915050565b600082601f830112151561031d57600080fd5b813561033061032b82610825565b6107f8565b9150818183526020840193506020810190508385602084028201111561035557600080fd5b60005b83811015610385578161036b88826102f6565b845260208401935060208301925050600181019050610358565b5050505092915050565b600082601f83011215156103a257600080fd5b81356103b56103b08261084d565b6107f8565b9150818183526020840193506020810190508360005b838110156103fb57813586016103e1888261049e565b8452602084019350602083019250506001810190506103cb565b5050505092915050565b600082601f830112151561041857600080fd5b813561042b61042682610875565b6107f8565b9150818183526020840193506020810190508385602084028201111561045057600080fd5b60005b8381101561048057816104668882610624565b845260208401935060208301925050600181019050610453565b5050505092915050565b60006104968251610911565b905092915050565b600082601f83011215156104b157600080fd5b81356104c46104bf8261089d565b6107f8565b915080825260208301602083018583830111156104e057600080fd5b6104eb83828461096a565b50505092915050565b60006060828403121561050657600080fd5b61051060606107f8565b9050600061052084828501610638565b600083015250602061053484828501610624565b6020830152506040610548848285016102f6565b60408301525092915050565b600060a0828403121561056657600080fd5b61057060a06107f8565b9050600061058084828501610638565b6000830152506020610594848285016102f6565b602083015250604082013567ffffffffffffffff8111156105b457600080fd5b6105c08482850161030a565b604083015250606082013567ffffffffffffffff8111156105e057600080fd5b6105ec84828501610405565b606083015250608082013567ffffffffffffffff81111561060c57600080fd5b6106188482850161038f565b60808301525092915050565b6000610630823561091d565b905092915050565b60006106448235610927565b905092915050565b60006020828403121561065e57600080fd5b600061066c8482850161048a565b91505092915050565b60006020828403121561068757600080fd5b600082013567ffffffffffffffff8111156106a157600080fd5b6106ad84828501610554565b91505092915050565b600080608083850312156106c957600080fd5b600083013567ffffffffffffffff8111156106e357600080fd5b6106ef85828601610554565b9250506020610700858286016104f4565b9150509250929050565b61071381610934565b82525050565b610722816108c9565b82525050565b6000602682527f457865637574696f6e206f66204552433230205472616e73616374696f6e206660208301527f61696c65642e00000000000000000000000000000000000000000000000000006040830152606082019050919050565b61078e816108f5565b82525050565b60006040820190506107a9600083018561070a565b6107b66020830184610785565b9392505050565b60006020820190506107d26000830184610719565b92915050565b600060208201905081810360008301526107f181610728565b9050919050565b6000604051905081810181811067ffffffffffffffff8211171561081b57600080fd5b8060405250919050565b600067ffffffffffffffff82111561083c57600080fd5b602082029050602081019050919050565b600067ffffffffffffffff82111561086457600080fd5b602082029050602081019050919050565b600067ffffffffffffffff82111561088c57600080fd5b602082029050602081019050919050565b600067ffffffffffffffff8211156108b457600080fd5b601f19601f8301169050602081019050919050565b60008115159050919050565b600073ffffffffffffffffffffffffffffffffffffffff82169050919050565b6000819050919050565b600061090a826108d5565b9050919050565b60008115159050919050565b6000819050919050565b600060ff82169050919050565b600061093f82610946565b9050919050565b600061095182610958565b9050919050565b6000610963826108d5565b9050919050565b8281833760008383015250505056fea265627a7a72305820f22ebba281dad4c0541dad23f22e0e45a40424f374f65d274718abe47d7546316c6578706572696d656e74616cf50037",
  "source": "pragma solidity 0.5.3;\npragma experimental \"ABIEncoderV2\";\n\nimport \"openzeppelin-solidity/contracts/token/ERC20/ERC20.sol\";\n\n\n/// @title Transfer - A library to encode a generic asset transfer data type\n/// @author Liam Horne - <liam@l4v.io>\n/// @notice This library defines `Transfer.Transaction` and `Transfer.Terms`, two structures\n/// which are used in state channel applications to represent a kind of \"resolution\" and\n/// a commitment to how much can be resolved respectively. A `Transfer.Transaction` object\n/// should be able to encode any arbitrary Ethereum-based asset transfer.\nlibrary Transfer {\n\n  enum Asset {\n    ETH,\n    ERC20\n  }\n\n  struct Terms {\n    uint8 assetType;\n    uint256 limit;\n    address token;\n  }\n\n  struct Transaction {\n    uint8 assetType;\n    address token;\n    address[] to;\n    uint256[] value;\n    bytes[] data;\n  }\n\n  /// @notice A delegate target for executing transfers of an arbitrary Transfer.Detail\n  /// @param txn A `Transfer.Transaction` struct\n  /// TODO: Add support for an OTHER Asset type and do a (to, value, data) CALL\n  function execute(Transfer.Transaction memory txn) public {\n    for (uint256 i = 0; i < txn.to.length; i++) {\n      address payable to = address(uint160(txn.to[i]));\n      uint256 value = txn.value[i];\n\n      if (txn.assetType == uint8(Transfer.Asset.ETH)) {\n        // solidity.readthedocs.io/en/v0.5.3/050-breaking-changes.html\n        address payable receiver = address(uint160(to));\n        receiver.transfer(value);\n      } else if (txn.assetType == uint8(Transfer.Asset.ERC20)) {\n        require(\n          ERC20(txn.token).transfer(to, value),\n          \"Execution of ERC20 Transaction failed.\"\n        );\n      }\n    }\n  }\n\n  /// @notice Verifies whether or not a `Transfer.Transaction` meets the terms set by a\n  /// `Transfer.Terms` object based on the limit information of how much can be transferred\n  /// @param txn A `Transfer.Transaction` struct\n  /// @return A boolean indicating if the terms are met\n  function meetsTerms(\n    Transfer.Transaction memory txn,\n    Transfer.Terms memory terms\n  )\n    public\n    pure\n    returns (bool)\n  {\n    uint256 sum = 0;\n    for (uint256 i = 0; i < txn.value.length; i++) {\n      sum += txn.value[i];\n    }\n    return sum <= terms.limit;\n  }\n\n}\n",
  "sourcePath": "@counterfactual/contracts/contracts/libs/Transfer.sol",
  "compiler": {
    "name": "solc",
    "version": "0.5.3+commit.10d17f24.Emscripten.clang"
  },
  "schemaVersion": "3.0.5",
  "updatedAt": "2019-04-01T11:12:40.099Z",
  "devdoc": {
    "author": "Liam Horne - <liam@l4v.io>",
    "methods": {
      "execute(Transfer.Transaction)": {
        "params": {
          "txn": "A `Transfer.Transaction` struct TODO: Add support for an OTHER Asset type and do a (to, value, data) CALL"
        }
      },
      "meetsTerms(Transfer.Transaction,Transfer.Terms)": {
        "params": {
          "txn": "A `Transfer.Transaction` struct"
        },
        "return": "A boolean indicating if the terms are met"
      }
    },
    "title": "Transfer - A library to encode a generic asset transfer data type"
  },
  "userdoc": {
    "methods": {
      "execute(Transfer.Transaction)": {
        "notice": "A delegate target for executing transfers of an arbitrary Transfer.Detail"
      },
      "meetsTerms(Transfer.Transaction,Transfer.Terms)": {
        "notice": "Verifies whether or not a `Transfer.Transaction` meets the terms set by a `Transfer.Terms` object based on the limit information of how much can be transferred"
      }
    },
    "notice": "This library defines `Transfer.Transaction` and `Transfer.Terms`, two structures which are used in state channel applications to represent a kind of \"resolution\" and a commitment to how much can be resolved respectively. A `Transfer.Transaction` object should be able to encode any arbitrary Ethereum-based asset transfer."
  }
}